{
  "contractName": "MyTokenSale",
  "abi": [
    {
      "inputs": [
        {
          "internalType": "uint256",
          "name": "rate",
          "type": "uint256"
        },
        {
          "internalType": "address payable",
          "name": "wallet",
          "type": "address"
        },
        {
          "internalType": "contract IERC20",
          "name": "token",
          "type": "address"
        },
        {
          "internalType": "contract KycContract",
          "name": "_kyc",
          "type": "address"
        }
      ],
      "stateMutability": "nonpayable",
      "type": "constructor"
    },
    {
      "anonymous": false,
      "inputs": [
        {
          "indexed": true,
          "internalType": "address",
          "name": "purchaser",
          "type": "address"
        },
        {
          "indexed": true,
          "internalType": "address",
          "name": "beneficiary",
          "type": "address"
        },
        {
          "indexed": false,
          "internalType": "uint256",
          "name": "value",
          "type": "uint256"
        },
        {
          "indexed": false,
          "internalType": "uint256",
          "name": "amount",
          "type": "uint256"
        }
      ],
      "name": "TokensPurchased",
      "type": "event"
    },
    {
      "inputs": [],
      "name": "_msgData",
      "outputs": [
        {
          "internalType": "bytes",
          "name": "",
          "type": "bytes"
        }
      ],
      "stateMutability": "view",
      "type": "function",
      "constant": true
    },
    {
      "inputs": [],
      "name": "_msgSender",
      "outputs": [
        {
          "internalType": "address payable",
          "name": "",
          "type": "address"
        }
      ],
      "stateMutability": "view",
      "type": "function",
      "constant": true
    },
    {
      "inputs": [
        {
          "internalType": "address",
          "name": "beneficiary",
          "type": "address"
        }
      ],
      "name": "buyTokens",
      "outputs": [],
      "stateMutability": "payable",
      "type": "function",
      "payable": true
    },
    {
      "inputs": [],
      "name": "rateShow",
      "outputs": [
        {
          "internalType": "uint256",
          "name": "",
          "type": "uint256"
        }
      ],
      "stateMutability": "view",
      "type": "function",
      "constant": true
    },
    {
      "inputs": [],
      "name": "tokenShow",
      "outputs": [
        {
          "internalType": "contract IERC20",
          "name": "",
          "type": "address"
        }
      ],
      "stateMutability": "view",
      "type": "function",
      "constant": true
    },
    {
      "inputs": [],
      "name": "walletShow",
      "outputs": [
        {
          "internalType": "address payable",
          "name": "",
          "type": "address"
        }
      ],
      "stateMutability": "view",
      "type": "function",
      "constant": true
    },
    {
      "inputs": [],
      "name": "weiRaised",
      "outputs": [
        {
          "internalType": "uint256",
          "name": "",
          "type": "uint256"
        }
      ],
      "stateMutability": "view",
      "type": "function",
      "constant": true
    },
    {
      "stateMutability": "payable",
      "type": "receive",
      "payable": true
    }
  ],
  "bytecode": "0x60806040523480156200001157600080fd5b50604051620017be380380620017be8339818101604052810190620000379190620002b3565b83838360016000806101000a81548160ff021916908315150217905550600083116200009a576040517f08c379a0000000000000000000000000000000000000000000000000000000008152600401620000919062000453565b60405180910390fd5b600073ffffffffffffffffffffffffffffffffffffffff168273ffffffffffffffffffffffffffffffffffffffff1614156200010d576040517f08c379a0000000000000000000000000000000000000000000000000000000008152600401620001049062000475565b60405180910390fd5b600073ffffffffffffffffffffffffffffffffffffffff168173ffffffffffffffffffffffffffffffffffffffff16141562000180576040517f08c379a0000000000000000000000000000000000000000000000000000000008152600401620001779062000431565b60405180910390fd5b8260028190555081600160006101000a81548173ffffffffffffffffffffffffffffffffffffffff021916908373ffffffffffffffffffffffffffffffffffffffff16021790555080600060016101000a81548173ffffffffffffffffffffffffffffffffffffffff021916908373ffffffffffffffffffffffffffffffffffffffff16021790555050505080600460006101000a81548173ffffffffffffffffffffffffffffffffffffffff021916908373ffffffffffffffffffffffffffffffffffffffff160217905550505050506200058a565b600081519050620002688162000522565b92915050565b6000815190506200027f816200053c565b92915050565b600081519050620002968162000556565b92915050565b600081519050620002ad8162000570565b92915050565b60008060008060808587031215620002ca57600080fd5b6000620002da878288016200029c565b9450506020620002ed8782880162000257565b935050604062000300878288016200026e565b9250506060620003138782880162000285565b91505092959194509250565b60006200032e60248362000497565b91507f43726f776473616c653a20746f6b656e20697320746865207a65726f2061646460008301527f72657373000000000000000000000000000000000000000000000000000000006020830152604082019050919050565b60006200039660148362000497565b91507f43726f776473616c653a207261746520697320300000000000000000000000006000830152602082019050919050565b6000620003d860258362000497565b91507f43726f776473616c653a2077616c6c657420697320746865207a65726f20616460008301527f64726573730000000000000000000000000000000000000000000000000000006020830152604082019050919050565b600060208201905081810360008301526200044c816200031f565b9050919050565b600060208201905081810360008301526200046e8162000387565b9050919050565b600060208201905081810360008301526200049081620003c9565b9050919050565b600082825260208201905092915050565b6000620004b582620004f8565b9050919050565b6000620004c982620004f8565b9050919050565b6000620004dd82620004a8565b9050919050565b6000620004f182620004a8565b9050919050565b600073ffffffffffffffffffffffffffffffffffffffff82169050919050565b6000819050919050565b6200052d81620004bc565b81146200053957600080fd5b50565b6200054781620004d0565b81146200055357600080fd5b50565b6200056181620004e4565b81146200056d57600080fd5b50565b6200057b8162000518565b81146200058757600080fd5b50565b611224806200059a6000396000f3fe6080604052600436106100745760003560e01c80638b49d47e1161004e5780638b49d47e14610111578063b26214c01461013c578063ec8ac4d814610167578063f8c365ea146101835761008b565b80630792edd514610090578063119df25f146100bb5780634042b66f146100e65761008b565b3661008b576100896100846101ae565b6101b6565b005b600080fd5b34801561009c57600080fd5b506100a5610307565b6040516100b29190610da2565b60405180910390f35b3480156100c757600080fd5b506100d06101ae565b6040516100dd9190610da2565b60405180910390f35b3480156100f257600080fd5b506100fb610331565b6040516101089190610f43565b60405180910390f35b34801561011d57600080fd5b5061012661033b565b6040516101339190610de6565b60405180910390f35b34801561014857600080fd5b50610151610388565b60405161015e9190610e08565b60405180910390f35b610181600480360381019061017c91906109a0565b6101b6565b005b34801561018f57600080fd5b506101986103b1565b6040516101a59190610f43565b60405180910390f35b600033905090565b60008054906101000a900460ff16610203576040517f08c379a00000000000000000000000000000000000000000000000000000000081526004016101fa90610ee3565b60405180910390fd5b60008060006101000a81548160ff021916908315150217905550600034905061022c82826103bb565b6000610237826104b3565b905061024e826003546104d190919063ffffffff16565b60038190555061025e838261052f565b8273ffffffffffffffffffffffffffffffffffffffff1661027d6101ae565b73ffffffffffffffffffffffffffffffffffffffff167f6faf93231a456e552dbc9961f58d9713ee4f2e69d15f1975b050ef0911053a7b84846040516102c4929190610f5e565b60405180910390a36102d6838361053d565b6102de610541565b6102e883836105ac565b505060016000806101000a81548160ff02191690831515021790555050565b6000600160009054906101000a900473ffffffffffffffffffffffffffffffffffffffff16905090565b6000600354905090565b60606000368080601f016020809104026020016040519081016040528093929190818152602001838380828437600081840152601f19601f82011690508083019250505050505050905090565b60008060019054906101000a900473ffffffffffffffffffffffffffffffffffffffff16905090565b6000600254905090565b6103c582826105b0565b600460009054906101000a900473ffffffffffffffffffffffffffffffffffffffff1673ffffffffffffffffffffffffffffffffffffffff16632eb10fde336040518263ffffffff1660e01b81526004016104209190610d87565b60206040518083038186803b15801561043857600080fd5b505afa15801561044c573d6000803e3d6000fd5b505050506040513d601f19601f8201168201806040525081019061047091906109c9565b6104af576040517f08c379a00000000000000000000000000000000000000000000000000000000081526004016104a690610e43565b60405180910390fd5b5050565b60006104ca6002548361066890919063ffffffff16565b9050919050565b60008082846104e09190610fbf565b905083811015610525576040517f08c379a000000000000000000000000000000000000000000000000000000000815260040161051c90610e23565b60405180910390fd5b8091505092915050565b61053982826106e3565b5050565b5050565b600160009054906101000a900473ffffffffffffffffffffffffffffffffffffffff1673ffffffffffffffffffffffffffffffffffffffff166108fc349081150290604051600060405180830381858888f193505050501580156105a9573d6000803e3d6000fd5b50565b5050565b600073ffffffffffffffffffffffffffffffffffffffff168273ffffffffffffffffffffffffffffffffffffffff161415610620576040517f08c379a000000000000000000000000000000000000000000000000000000000815260040161061790610ea3565b60405180910390fd5b6000811415610664576040517f08c379a000000000000000000000000000000000000000000000000000000000815260040161065b90610f03565b60405180910390fd5b5050565b60008083141561067b57600090506106dd565b600082846106899190611046565b90508284826106989190611015565b146106d8576040517f08c379a00000000000000000000000000000000000000000000000000000000081526004016106cf90610e83565b60405180910390fd5b809150505b92915050565b6107308282600060019054906101000a900473ffffffffffffffffffffffffffffffffffffffff1673ffffffffffffffffffffffffffffffffffffffff166107349092919063ffffffff16565b5050565b6107b58363a9059cbb60e01b8484604051602401610753929190610dbd565b604051602081830303815290604052907bffffffffffffffffffffffffffffffffffffffffffffffffffffffff19166020820180517bffffffffffffffffffffffffffffffffffffffffffffffffffffffff83818316178352505050506107ba565b505050565b6107d98273ffffffffffffffffffffffffffffffffffffffff1661092b565b610818576040517f08c379a000000000000000000000000000000000000000000000000000000000815260040161080f90610f23565b60405180910390fd5b6000808373ffffffffffffffffffffffffffffffffffffffff16836040516108409190610d70565b6000604051808303816000865af19150503d806000811461087d576040519150601f19603f3d011682016040523d82523d6000602084013e610882565b606091505b5091509150816108c7576040517f08c379a00000000000000000000000000000000000000000000000000000000081526004016108be90610e63565b60405180910390fd5b60008151111561092557808060200190518101906108e591906109c9565b610924576040517f08c379a000000000000000000000000000000000000000000000000000000000815260040161091b90610ec3565b60405180910390fd5b5b50505050565b60008060007fc5d2460186f7233c927e7db2dcc703c0e500b653ca82273b7bfad8045d85a47060001b9050833f915080821415801561096d57506000801b8214155b92505050919050565b600081359050610985816111c0565b92915050565b60008151905061099a816111d7565b92915050565b6000602082840312156109b257600080fd5b60006109c084828501610976565b91505092915050565b6000602082840312156109db57600080fd5b60006109e98482850161098b565b91505092915050565b6109fb816110b2565b82525050565b610a0a816110a0565b82525050565b6000610a1b82610f87565b610a258185610f92565b9350610a3581856020860161111e565b610a3e816111af565b840191505092915050565b6000610a5482610f87565b610a5e8185610fa3565b9350610a6e81856020860161111e565b80840191505092915050565b610a83816110fa565b82525050565b6000610a96601b83610fae565b91507f536166654d6174683a206164646974696f6e206f766572666c6f7700000000006000830152602082019050919050565b6000610ad6602683610fae565b91507f4b7963206e6f7420636f6d6c657465642c207075726368617365206e6f74206160008301527f6c6c6f77656400000000000000000000000000000000000000000000000000006020830152604082019050919050565b6000610b3c602083610fae565b91507f5361666545524332303a206c6f772d6c6576656c2063616c6c206661696c65646000830152602082019050919050565b6000610b7c602183610fae565b91507f536166654d6174683a206d756c7469706c69636174696f6e206f766572666c6f60008301527f77000000000000000000000000000000000000000000000000000000000000006020830152604082019050919050565b6000610be2602a83610fae565b91507f43726f776473616c653a2062656e656669636961727920697320746865207a6560008301527f726f2061646472657373000000000000000000000000000000000000000000006020830152604082019050919050565b6000610c48602a83610fae565b91507f5361666545524332303a204552433230206f7065726174696f6e20646964206e60008301527f6f742073756363656564000000000000000000000000000000000000000000006020830152604082019050919050565b6000610cae601f83610fae565b91507f5265656e7472616e637947756172643a207265656e7472616e742063616c6c006000830152602082019050919050565b6000610cee601983610fae565b91507f43726f776473616c653a20776569416d6f756e742069732030000000000000006000830152602082019050919050565b6000610d2e601f83610fae565b91507f5361666545524332303a2063616c6c20746f206e6f6e2d636f6e7472616374006000830152602082019050919050565b610d6a816110f0565b82525050565b6000610d7c8284610a49565b915081905092915050565b6000602082019050610d9c6000830184610a01565b92915050565b6000602082019050610db760008301846109f2565b92915050565b6000604082019050610dd26000830185610a01565b610ddf6020830184610d61565b9392505050565b60006020820190508181036000830152610e008184610a10565b905092915050565b6000602082019050610e1d6000830184610a7a565b92915050565b60006020820190508181036000830152610e3c81610a89565b9050919050565b60006020820190508181036000830152610e5c81610ac9565b9050919050565b60006020820190508181036000830152610e7c81610b2f565b9050919050565b60006020820190508181036000830152610e9c81610b6f565b9050919050565b60006020820190508181036000830152610ebc81610bd5565b9050919050565b60006020820190508181036000830152610edc81610c3b565b9050919050565b60006020820190508181036000830152610efc81610ca1565b9050919050565b60006020820190508181036000830152610f1c81610ce1565b9050919050565b60006020820190508181036000830152610f3c81610d21565b9050919050565b6000602082019050610f586000830184610d61565b92915050565b6000604082019050610f736000830185610d61565b610f806020830184610d61565b9392505050565b600081519050919050565b600082825260208201905092915050565b600081905092915050565b600082825260208201905092915050565b6000610fca826110f0565b9150610fd5836110f0565b9250827fffffffffffffffffffffffffffffffffffffffffffffffffffffffffffffffff0382111561100a57611009611151565b5b828201905092915050565b6000611020826110f0565b915061102b836110f0565b92508261103b5761103a611180565b5b828204905092915050565b6000611051826110f0565b915061105c836110f0565b9250817fffffffffffffffffffffffffffffffffffffffffffffffffffffffffffffffff048311821515161561109557611094611151565b5b828202905092915050565b60006110ab826110d0565b9050919050565b60006110bd826110d0565b9050919050565b60008115159050919050565b600073ffffffffffffffffffffffffffffffffffffffff82169050919050565b6000819050919050565b60006111058261110c565b9050919050565b6000611117826110d0565b9050919050565b60005b8381101561113c578082015181840152602081019050611121565b8381111561114b576000848401525b50505050565b7f4e487b7100000000000000000000000000000000000000000000000000000000600052601160045260246000fd5b7f4e487b7100000000000000000000000000000000000000000000000000000000600052601260045260246000fd5b6000601f19601f8301169050919050565b6111c9816110a0565b81146111d457600080fd5b50565b6111e0816110c4565b81146111eb57600080fd5b5056fea26469706673582212201e8e746732836ec0abed801fbe976df5fdf7394c33c1d4a58b1259f50398166e64736f6c63430008000033",
  "immutableReferences": {},
  "source": "// SPDX-License-Identifier: MIT\npragma solidity ^0.8.0;\n\nimport \"./Crowdsale.sol\";\nimport \"./KycContract.sol\";\n\n//weblink: https://docs.openzeppelin.com/contracts/2.x/crowdsales\n/*\n   Note : This contract owns the tokens , so once we sent ethers to the wallet\n   it'll send us tokens as per the rate from it's own address\n*/\n\ncontract MyTokenSale is Crowdsale {\n    //adding a KYC Pre-validation here\n\n    KycContract kyc;   //KycContract kyc is the contract-wide declaration of the kyc variable\n\n    constructor(\n        uint256 rate, // tells us for how many wei we can purchase a token\n        address payable wallet, //this receives amount of ethers sent to crowdsale\n        IERC20 token, //transfer tokens who's sending ethers to crowdsale contract\n        KycContract _kyc\n    ) Crowdsale(rate, wallet, token) {\n        kyc = _kyc; //contarct instance once it is deployed\n    }\n\n    //overriding existing func. from Cowrdsale.sol\n\t\n\t/*\n\t\n\t\n\t-when you call the crowdsale contract then the _preValidatePurchase function is called. \n\t-This function is initially empty, but when you override the crowdsale contract provided by openzeppelin, \n\tthen you can write your own _preValidatePurchase function which will be called then.\n\t\n\t\n\t*/\n\n\t\n    function _preValidatePurchase(address beneficiary, uint256 weiAmount)\n        internal\n        view\n        override\n    {\n        super._preValidatePurchase(beneficiary, weiAmount); //calling func. of base class\n        require(\n            kyc.KycCompleted(msg.sender),\n            \"Kyc not comleted, purchase not allowed\"\n        );\n    }\n}\n",
  "sourcePath": "C:\\Users\\Admin\\Desktop\\ICO\\contracts\\MyTokenSale.sol",
  "compiler": {
    "name": "solc",
    "version": "0.8.0+commit.c7dfd78e.Emscripten.clang"
  },
  "schemaVersion": "3.4.7",
  "updatedAt": "2022-04-16T09:49:59.131Z",
  "networkType": "ethereum",
  "devdoc": {
    "kind": "dev",
    "methods": {
      "buyTokens(address)": {
        "details": "low level token purchase ***DO NOT OVERRIDE*** This function has a non-reentrancy guard, so it shouldn't be called by another `nonReentrant` function.",
        "params": {
          "beneficiary": "Recipient of the token purchase"
        }
      },
      "rateShow()": {
        "returns": {
          "_0": "the number of token units a buyer gets per wei."
        }
      },
      "tokenShow()": {
        "returns": {
          "_0": "the token being sold."
        }
      },
      "walletShow()": {
        "returns": {
          "_0": "the address where funds are collected."
        }
      },
      "weiRaised()": {
        "returns": {
          "_0": "the amount of wei raised."
        }
      }
    },
    "version": 1
  },
  "userdoc": {
    "events": {
      "TokensPurchased(address,address,uint256,uint256)": {
        "notice": "Event for token purchase logging"
      }
    },
    "kind": "user",
    "methods": {},
    "version": 1
  }
}